:020000040800F2
:10000000A8070020D5010008DB0E00085D090008E4
:10001000D70E0008AD070008E31400080000000038
:10002000000000000000000000000000ED100008CB
:10003000B107000800000000610F0008011200086D
:10004000EF010008EF010008EF010008EF010008D0
:10005000EF010008EF010008EF010008EF010008C0
:10006000EF010008EF010008EF010008EF010008B0
:10007000EF010008EF010008EF010008EF010008A0
:10008000EF010008EF010008EF010008EF01000890
:10009000EF010008EF010008EF010008EF01000880
:1000A000EF010008EF010008EF010008EF01000870
:1000B000EF010008EF010008EF010008EF01000860
:1000C000EF010008EF010008EF010008EF01000850
:1000D000EF01000865120008EF010008EF010008B9
:1000E000EF010008EF010008EF010008EF01000830
:1000F000EF010008EF010008EF010008EF01000820
:10010000EF010008EF010008EF010008EF0100080F
:10011000EF010008EF010008EF010008EF010008FF
:10012000EF010008EF010008EF010008EF010008EF
:1001300000F002F800F03FF80AA090E8000C8244BA
:100140008344AAF10107DA4501D100F034F8AFF297
:10015000090EBAE80F0013F0010F18BFFB1A43F0A5
:1001600001031847AC640000CC640000103A24BFBF
:1001700078C878C1FAD8520724BF30C830C144BF0C
:1001800004680C607047000000230024002500264E
:10019000103A28BF78C1FBD8520728BF30C148BFEA
:1001A0000B607047642900F06780002070471FB51E
:1001B0001FBD10B510BD00F0CBFA1146FFF7F7FFD9
:1001C00002F05EFF00F0E9FA03B4FFF7F2FF03BCB0
:1001D00001F00DFA0948804709480047FEE7FEE7AD
:1001E000FEE7FEE7FEE7FEE7FEE7FEE7FEE7FEE7E7
:1001F00004480549054A064B7047000005120008EF
:1002000031010008A8010020A8070020A803002051
:10021000A8030020704710B54C1084EA530404D59D
:100220004042C1F1000138BF491E1B4204D5524271
:10023000C3F1000338BF5B1E00F02EF914F0804FAD
:1002400004D04042C1F1000138BF491E14F0004FF4
:1002500004D05242C3F1000338BF5B1E10BD000042
:100260000FB4044910B503AA029800F0F1F910BCCC
:100270005DF814FB500000202DE9F04106460024F3
:1002800010687529314616A510D0AFF300800028FC
:1002900002DA404213A507E031688A0701D512A5AA
:1002A00002E0490704D511A5012401E0AFF3008065
:1002B00000210A2206F1240709E0B0FBF2FCB0FBA2
:1002C000F2F302FB1C00303078541846491C002819
:1002D000F3D123462A463046BDE8F04100F05EB92E
:1002E000000000002D0000002B0000002000000096
:1002F0002DE9F05F894604464FF0000ADFF824B18B
:10030000FB44C0F820A02046E168884700287DD043
:10031000252806D0D4E901219047206A401C20629C
:10032000F1E700255F462046E16888472028064619
:1003300007DB312E05D2B81910F8200C08B105439F
:10034000F1E7A80701D525F00405C4F81CA0002793
:10035000C4F818A02A2E09D0304601F041F938B36C
:1003600004EB8708303EC8F8186019E059F8041B00
:10037000204604EB87029161E1688847012F064619
:1003800018D1E069002820DA25F020051DE0D8F812
:10039000180000EB800006EB40003038C8F8180069
:1003A0002046E1688847064601F01AF90028EED198
:1003B000012F0AD02E2E08D12046E16888477F1CE5
:1003C0000646022F45F02005C4DBA069002803DAA9
:1003D000404245F00105A061E80701D025F0100575
:1003E000A6B1A6F14100192802D8203645F40065CF
:1003F0004A463146204625604D46FFF7D3FE60B1A0
:10040000012807D0ED1D25F0070000E007E000F10E
:10041000080978E705F1040975E730467AE7206AAC
:10042000BDE8F09FBA61000040EA010310B59B07E8
:100430000FD1042A0DD310C808C9121F9C42F8D04E
:1004400020BA19BA884201D9012010BD4FF0FF30FF
:1004500010BD1AB1D30703D0521C07E0002010BD15
:1004600010F8013B11F8014B1B1B07D110F8013BA1
:1004700011F8014B1B1B01D1921EF1D1184610BD82
:1004800002F0FF0343EA032242EA024200F0F4B81A
:10049000704770477047704753EA020C00F069805C
:1004A0002DE9F04B4FF00006002B1FBFB3FA83F588
:1004B00003FA05F424FA05F65E4012BF1643B2FAB9
:1004C00082F502FA05F4C5F120051EBF22FA05FCEB
:1004D00044EA0C04203556EA044C4FEA144418BF91
:1004E000641C4FF000084FF00009904271EB030CC0
:1004F00039D3002919BFB1FA81F701FA07F6B0FA2A
:1005000080F700FA07F6C7F120071EBF20FA07FCA4
:1005100046EA0C062037B6FBF4FCA7EB0507103FB4
:1005200007F01F0BCBF120060CFA0BFB2CFA06F69A
:1005300044BFB3460026202FA4BF5E464FF0000BF9
:100540005BEA060C08BF4FF0010B19EB0B09ABFB84
:10055000027C48EB0608C01B06FB02CC0BFB03CC5D
:1005600071EB0C01C1E70B46024641464846BDE827
:10057000F08B13B54FF000004FF00001AFF3008097
:10058000BDE81C40704710B500F096F8006810BD3B
:1005900010B5044600F090F8046010BD2DE9F04756
:1005A0000D4699469246044600F1240801688806E3
:1005B00004D5E06921F01001216000E00120A8428B
:1005C00001DD471B00E00027A1697A1902EB090051
:1005D000081AA0612078C00602D42046AFF300803C
:1005E000002608E0D4E901211AF806009047206AA5
:1005F000401C761C20624E45F4DB2078C0060AD5EC
:100600002046AFF3008006E0D4E901213020904776
:10061000206A401C2062381EA7F10107F4DC07E0C5
:10062000D4E9012118F805009047206A401C206297
:10063000281EA5F10105F3DC2046AFF300802078E9
:10064000000602D50220BDE8F0870120FBE700008C
:10065000074B70B50D467B4400F037F8044628463A
:1006600000F046F810B14FF0FF3070BD204670BD6D
:10067000632300004FF000020429C0F0128010F044
:10068000030C00F03B80CCF1040CBCF1020F18BF4E
:1006900000F8012BA8BF20F8022BA1EB0C0100F001
:1006A0002DB85FEAC17C24BF00F8012B00F8012BB4
:1006B00048BF00F8012B70470048704744010020F4
:1006C00001694A1C02610878704700B58FB0CDE916
:1006D00001310021059105497944CDE90310114606
:1006E0006846FFF705FE0FB000BD0000E5FFFFFF05
:1006F000007B00F0800070474FF0000200B5134609
:1007000094469646203922BFA0E80C50A0E80C5031
:10071000B1F12001BFF4F7AF090728BFA0E80C50E2
:1007200048BF0CC05DF804EB890028BF40F8042BDB
:1007300008BF704748BF20F8022B11F0804F18BF48
:1007400000F8012B7047000000487047440100206A
:100750007546FFF7F9FFAE4605006946534620F09F
:100760000700854618B020B5FFF742FDBDE82040E0
:100770004FF000064FF000074FF000084FF0000B5D
:1007800021F00701AC46ACE8C009ACE8C009ACE810
:10079000C009ACE8C0098D46704710B50446AFF3F8
:1007A00000802046BDE81040FFF70EBD00BFFEE709
:1007B00070472DE9F0410246002500260020002365
:1007C0000024002791F803C00CF00F0591F803C036
:1007D0000CF0100CBCF1000F03D091F802C04CEAF1
:1007E000050591F800C0BCF1000F31D0146800205D
:1007F0002BE04FF0010C0CFA00F3B1F800C00CEA4A
:1008000003069E4220D183004FF00F0C0CFA03F731
:10081000BC4305FA03FC4CEA040491F803C0BCF1A4
:10082000280F06D14FF0010C0CFA00FCC2F814C0DE
:100830000AE091F803C0BCF1480F05D14FF0010C5C
:100840000CFA00FCC2F810C0401C0828D1D3146078
:10085000B1F800C0BCF1FF0F34DD546800202EE079
:1008600000F1080C4FF0010808FA0CF3B1F800C0D1
:100870000CEA03069E4221D183004FF00F0C0CFAC4
:1008800003F7BC4305FA03FC4CEA040491F803C0E7
:10089000BCF1280F05D100F1080C08FA0CF8C2F8D9
:1008A000148091F803C0BCF1480F07D100F1080C87
:1008B0004FF0010808FA0CF8C2F81080401C082814
:1008C000CED35460BDE8F081F0B50A460023002481
:1008D0000021002500F00046B6F1004F02D11D4E68
:1008E000F16901E01B4E7168C0F3034583B200F467
:1008F0004016B6F5401F08D121F07061154E76689C
:1009000026F07066134F7E6012E000F48016B6F594
:10091000801F06D1032606FA05F4A14341F0706159
:1009200006E0460D360103FA06F6B14341F0706168
:1009300022B1460D360103FA06F6314300F00046B7
:10094000B6F1004F02D1034EF16101E0014E71603A
:10095000F0BD0000000001400161704700BFFEE7EC
:1009600008B50121102000F0FDFA4FF40050ADF859
:10097000000010208DF8030003208DF80200694666
:100980000448FFF716FF4FF400510248FFF7E4FF59
:1009900008BD00000010014010B500200E4908609D
:1009A0000E48006820F470400C4908600846006852
:1009B00040F44050086000200949C1F8AC0100F043
:1009C00011F801200449086000F00CF800200449E7
:1009D000C1F8A80110BD0000A8812142040C01400B
:1009E0000080214210B5022001F0E8F910BD00009E
:1009F00008B50121082000F0B5FA4FF44060ADF8C9
:100A0000000010208DF8030003208DF802006946D5
:100A10000448FFF7CEFE4FF440610248FFF79CFF09
:100A200008BD0000000C014010B500200E49086010
:100A30000E48006820F470400C49086008460068C1
:100A400040F44050086001200949C1F8AC01FFF7AB
:100A5000C9FF012004490860FFF7C4FF00200449D2
:100A6000C1F8A80110BD0000A8812142040C01407A
:100A70000080214270B5054600241648006820F425
:100A80007040144908600846006840F4004008605F
:100A9000002614E0002010490860FFF7A3FF0120A2
:100AA0000E49C1F8A8016006040E0B487C380068A6
:100AB00008B1601CC4B2FFF795FF701CC6B2082EC7
:100AC000E8DB15B9FFF7B0FF01E0FFF765FF20464F
:100AD00070BD0000040C0140A88121420080214229
:100AE00070B504461248006820F470401049086050
:100AF0000846006840F44050086000200D49086036
:100B0000002512E0E0090B49091D08606006040E8B
:100B100001200949C1F8A801FFF764FF0020054939
:100B20000860FFF75FFF681CC5B2082DEADB70BDE7
:100B3000040C0140A88121420080214210B50E48DA
:100B4000006820F470400C4908600846006840F4D2
:100B5000405008600120094908600949C1F8A8010E
:100B6000FFF740FF002005490860FFF73BFF00202A
:100B70000349C1F8A80110BD040C0140AC81214219
:100B80000080214210B50E48006820F470400C49E6
:100B900008600846006840F4405008600020094999
:100BA00008600949C1F8AC01FFF71CFF01200549A5
:100BB00008600549C1F8AC01FFF714FF10BD000043
:100BC000040C0140A88121420080214210B500247C
:100BD0001448006820F47040124908600846006814
:100BE00040F40040086001200F490860FFF7FAFE5A
:100BF00001200E49C1F8A801FFF7F4FE07E0601CD0
:100C0000C4B2FA2C03DDFFF7BDFF012010BD06487A
:100C1000803800680028F2D10349091F086000BF2E
:100C2000F4E70000040C0140AC8121420080214225
:100C300038B50121084600F095F90121042000F0A3
:100C400091F94FF40040ADF8000010208DF803003A
:100C500003208DF8020069462248FFF7AAFD012112
:100C60002148FFF731FE002020490860FFF7C0FE51
:100C700080216B2000F0DDF8642001F079F800217C
:100C80006B2000F0D6F8032000F091F8002000F06F
:100C900086F8322000F0B0F80021382000F0C9F8C2
:100CA00000216A2000F0C5F80021232000F0C1F8DF
:100CB0008021372000F0BDF8752000F019F80446B7
:100CC000682C0BD101216B2000F0B3F800216C20BF
:100CD00000F0AFF8322000F08FF801E0012038BDBD
:100CE0000020FCE70008014000023000BC01214266
:100CF00070B50446FFF722FFD020FFF7F1FEFFF7A3
:100D000065FF2046FFF7ECFEFFF760FFFFF716FFD9
:100D1000D120FFF7E5FEFFF759FF0020FFF7AAFEFD
:100D20000546FFF72FFF284670BD2DE9F041064626
:100D30000F4614461D46FFF701FF002141EA460118
:100D4000C8B2FFF7CDFEFFF741FF20B1FFF71AFF52
:100D50000120BDE8F0813846FFF7C2FEFFF736FFFD
:100D6000FFF7ECFE012101EB4601C8B2FFF7B8FE28
:100D7000FFF72CFF0DE0012C04D10020FFF77AFED5
:100D8000287003E00120FFF775FE2870601EC4B2D2
:100D90006D1C002CEFD1FFF7F5FE0020D9E710B550
:100DA0000446E006010E1C2000F043F810BD10B50B
:100DB0000446E006010E1B2000F03BF810BD70B5A4
:100DC00004460025BC2C01DB012510E0622C01DB70
:100DD00002250CE02A2C01DB032508E0142C01DBA2
:100DE000042504E00A2C01DB052500E00625294640
:100DF0001A2000F01EF870BD70B50446B4F57A7F75
:100E000001DD4FF47A74042C00DA04244FF47A7074
:100E100090FBF4F0401EC5B22946192000F009F8F5
:100E20000546264604EBD671C1F34F00FFF7C7FF16
:100E300070BD70B505460C46FFF780FED020FFF769
:100E40004FFEFFF7C3FE18B1FFF79CFE012070BDF7
:100E50002846FFF745FEFFF7B9FE2046FFF740FEA4
:100E6000FFF7B4FE18B1FFF78DFE0120EFE7FFF7A3
:100E700089FE0020EBE72DE9F04105460E461746B6
:100E80009846FFF75BFE002141EA4501C8B2FFF733
:100E900027FEFFF79BFE20B1FFF774FE0120BDE89F
:100EA000F0813046FFF71CFEFFF790FE00240CE0B7
:100EB00018F80400FFF714FEFFF788FE18B1FFF7DB
:100EC00061FE0120EBE7601CC4B2BC42F0DBFFF71F
:100ED00059FE0020E3E700BFFEE7704770B5002130
:100EE00000230F22C47804B3154C246804F4E06492
:100EF000C4F5E064210AC1F10403CA40447804FA4D
:100F000003F184781440214309010E4C0678A15561
:100F1000047804F01F050124AC4005786D11AD0084
:100F200005F1E025C5F8004109E0047804F01F054B
:100F30000124AC40044D0678761145F8264070BD7A
:100F40000CED00E000E400E080E100E00249014334
:100F5000024A1160704700000000FA050CED00E045
:100F60007047000029B1064A92690243044B9A6116
:100F700004E0034A92698243014B9A617047000082
:100F80000010024030B500210022002400232D4D26
:100F90006D6805F00C0121B1042905D0082923D181
:100FA00005E0294D056022E0274D05601FE0254D35
:100FB0006D6805F47012234D6D6805F480340225C8
:100FC00005EB92421CB9214D554305600BE01D4DC8
:100FD0006D6805F400351DB11C4D5543056002E0F8
:100FE000194D5543056002E0174D056000BF00BF75
:100FF000144D6D6805F0F0010909154D6B5C05682D
:10100000DD4045600F4D6D6805F4E061090A104D43
:101010006B5C4568DD4085600A4D6D6805F4605184
:10102000C90A0B4D6B5C4568DD40C560054D6D68B8
:1010300005F44041890B074D6B5CC568B5FBF3F5C2
:10104000056130BD0010024000127A0000093D0029
:1010500056000020660000202DE9FF4704460D469B
:1010600016464FF00008C146002000900190029003
:101070000390AA208DF80000FF208DF801000320C6
:101080008DF8020007208DF80300E0B28DF804000F
:10109000200A8DF80500E8B28DF80600280A8DF8C0
:1010A0000700F0B28DF80800300A8DF80900002022
:1010B0008DF80A0000270AE01DF80700404400F000
:1010C000FF0809EB080000F0FF09781CC7B29DF883
:1010D0000300001DB842EFDC8DF80B808DF80C90FA
:1010E0000D21684600F002F9BDE8FF87704710B592
:1010F00000F002F810BD00000CB500200190009037
:101100003348006840F480303149086000BF3048FF
:10111000006800F4003000900198401C0190009895
:1011200018B90198B0F5A06FF1D12948006800F412
:10113000003010B10120009001E0002000900098E4
:10114000012843D12348006840F01000214908607D
:101150000846006820F0030008600846006840F078
:10116000020008601A48406819494860084640680B
:1011700048600846406840F480604860084640681F
:1011800020F47C1048600846406840F4E81048604D
:101190000846006840F08070086000BF0C48006896
:1011A00000F000700028F9D00948406820F00300E2
:1011B000074948600846406840F00200486000BFA8
:1011C0000348406800F00C000828F9D10CBD00006D
:1011D0000010024000200240042808D14FF0E02116
:1011E000096941F004014FF0E022116107E04FF07E
:1011F000E021096921F004014FF0E02211617047FC
:101200007047000010B51348006840F00100114914
:10121000086008464068104908400E494860084682
:1012200000680E4908400B4908600846006820F431
:10123000802008600846406820F4FE0048604FF4B3
:101240001F008860FFF753FF4FF0006004490860FB
:1012500010BD0000001002400000FFF8FFFFF6FE86
:1012600008ED00E010B540F225511D4800F075F87A
:1012700010B31B4800F02CF9C4B21A48008800F4DF
:101280000040C8B91748008800F4804060B10A2CBB
:1012900003D000201349088020E01248008840F461
:1012A00000401049088019E00D2C06D10D48008837
:1012B00040F480400B49088010E00A480088C0F3E1
:1012C0000D0009490C5407480088401C0549088056
:1012D00008460088C72801DD0020088010BD0000F6
:1012E00000380140540000207C00002070B5044606
:1012F0000D4605E0207800F007F8641C681EC5B2B2
:10130000002DF7D170BD000010B5044621460548F8
:1013100000F0E3F800BF4021024800F011F8002877
:10132000F9D010BD0038014021B1828942F4005249
:10133000828104E082894DF6FF731A4082817047F2
:1013400002460020B1F5007F00D100BF13880B409A
:101350000BB1012000E00020704770B50246002468
:1013600000230025002040F66A16B14200D100BFDC
:10137000C1F3421501F01F03012606FA03F3012D04
:1013800002D19689334006E0022D02D1168A3340FD
:1013900001E0968A33400C12012606FA04F41688FE
:1013A000344013B10CB1012000E0002070BDF0B555
:1013B0000346002400260025002040F66A17B942A3
:1013C00000D100BF1846C1F3421401F01F060127E7
:1013D00007FA06F5012C01D10C3004E0022C01D1F2
:1013E000103000E014301AB107682F43076002E0A4
:1013F0000768AF430760F0BD2DE9F04786B00546AA
:101400000E460024A24600BFA1460027B08900B1C5
:1014100000BF2F462C8A4CF6FF700440F08804432E
:101420002C82AC894EF6F3100440B0883189084311
:10143000718908430443AC81AC8A4FF6FF400440F5
:10144000B0890443AC8201A8FFF79CFD1F48874286
:1014500002D1DDF810A001E0DDF80CA0A88900F4AD
:10146000004040B10AEBCA0000EB0A1031684900A5
:10147000B0FBF1F807E00AEBCA0000EB0A10316894
:101480008900B0FBF1F86420B8FBF0F004012009FA
:10149000642101FB1089A88900F4004040B132208A
:1014A00000EBC900B0FBF1F000F00700044308E0D6
:1014B000322000EB09106421B0FBF1F000F00F00C6
:1014C00004432C8106B0BDE8F087000000380140DD
:1014D00001468888C0F308007047C1F30802828083
:1014E000704700BFFEE7490050EAC12018BF042042
:1014F0004A0D18BF40F0010040F2FF72B2EB515F9D
:1015000008BF40F00200012808BF052070472DE900
:10151000F0414F1E00EBC7010446D1E9000115461A
:101520001E4637F006020DD02A46334603F0B2FAC3
:101530007F1E04EBC703D3E9002303F05BF837F009
:101540000602F1D1022F25D0042F13D0062F18BF89
:10155000BDE8F0812A46334603F09CFAD4E90A2319
:1015600003F048F82A46334603F094FAD4E90823F6
:1015700003F040F82A46334603F08CFAD4E90623F8
:1015800003F038F82A46334603F084FAD4E90423FA
:1015900003F030F82A46334603F07CFAD4E90223FC
:1015A00003F028F82A46334603F074FAD4E90023FE
:1015B000BDE8F04103F01EB8012204F016B903F0B3
:1015C00019B8002213461046114603F0CFB80000A8
:1015D000024A0020110704F008B9000001FDFFFFD6
:1015E00030380A2801D20120704700207047014698
:1015F00000BF70472DE9FE4F06460F46002568469E
:1016000001F0EAF9002442E056F8240057F82410CB
:10161000A0EB010ABAF1000F01DB514601E0CAF16B
:101620000001084603F0DCFE83464FF08F4103F0D3
:10163000A5FD80465DF82400002103F061FE16D070
:101640005DF82410404603F099FD82464FF07E512C
:1016500004F024F8814629F0004A0F48416A5046B8
:1016600003F0EAFF12D20120A04005430EE00A4831
:10167000C169404603F0E0FE05D30748016A4046D1
:1016800003F0DAFF02D20120A0400543641C032CC2
:10169000BADB2846BDE8FE8FA05800082DE9F04DC2
:1016A0008D4F21F0004A86B005460C46BA452ADB2C
:1016B000AAEB070028430AD08848824501DC1AD1EA
:1016C000CDB106B02846BDE8F04DFFF775BF844A9E
:1016D000844B284603F0DEF907460E46824A834BC8
:1016E0002846214603F0D6F906B03A463346BDE80F
:1016F000F04D02F07FBF0120FEF74AFF06B0BDE8C3
:10170000F04DFFF75EBF7A48824542DABAF1795F61
:101710000BDA2846FFF7E7FE042808BFFFF758FF5B
:10172000284606B02146BDE8F08D2A460B461046F5
:1017300003F0B0F9834602466E480E460B4606217A
:101740007844FFF7E4FE5A46334603F0A3F9804697
:1017500069488A465A46334604217844FFF7D7FE43
:101760005A46334603F096F900223B4602F042FF08
:1017700002460B464046514602F0F8FF2A462346F1
:1017800003F088F906B02A462346BDE8F04D02F082
:1017900031BF284624F0004100223D463B4603F07D
:1017A00077FA4FF0FF3204F020F80646024653481D
:1017B0000F460B4606217844FFF7A9FE32463B460A
:1017C00003F068F9CDE900014D4832463B4604215B
:1017D0007844FFF79CFE32463B4603F05BF900225B
:1017E0002B4602F007FF834602913046394602F04D
:1017F00059FE804643480D46504517DCDDE900019F
:101800005A46029B02F0B2FF42462B4603F042F9D1
:1018100042462B4602F0EEFE012203F0E6FF304A7C
:10182000304B03F027FB304A304B4CE04FF0000ABE
:1018300052460B46404602F0DDFECDE9031052460B
:101840002B461046194603F025F932463B4603F075
:101850001FFADDE9033202F089FF06460F46DDE993
:1018600000015A46029B02F081FF8346009101224B
:101870003046394603F0B9FF194A1A4B03F008FA0B
:1018800006460F4601224046294603F0AEFF5A465F
:10189000009B03F0FFF832463B4603F0EBFA0646A6
:1018A0000F4601225046294603F09FFF0E4DDFF8F8
:1018B00058802A46434603F0EBF932463B4603F094
:1018C000E7F92A46434603F0E3F9002CD8BF81F03C
:1018D000004106B0BDE8F08D0000F03F0000F07F51
:1018E000075C143326A6913C182D4454FB21F93F84
:1018F0000000E03F8C4D0000A24D0000164D00009E
:101900002C4D00003333EF3FFB21E93F2DE9F84F29
:1019100004460D4621F0004000917349814211DCDC
:101920007249884201DC06D12CB120462946BDE827
:10193000F84FFFF741BE6E48002DCCBF6D496E4990
:10194000BDE8F88F6D49814211DD6D498142D8BFF4
:101950004FF0FF366DDD20462946FFF7C4FD042811
:1019600008BFFFF735FE20462946BDE8F88F6549D8
:10197000654F25F00045814233DD6449814219DD20
:10198000002632464FF080432046294602F032FEC0
:1019900080468A4601222046294603F026FF00227F
:1019A0003B4603F067FA4246534602F0DFFE044628
:1019B0000D463EE001260022BA463B462046294617
:1019C00002F018FE80460F46002253462046294664
:1019D00003F050FA42463B4602F0C8FE04460D466C
:1019E00027E04B4981421BDDDFF828A102260022B7
:1019F00053462046294603F04DF800223B4602F0AC
:101A0000F9FD80460F46002253462046294603F042
:101A100031FA42463B4602F0A9FE04460D4608E074
:101A2000032622462B4600203B4902F09FFE044637
:101A30000D4622462B461046194603F02BF88B46DE
:101A4000824602460B4603F025F807460246334815
:101A500088460B4606217844FFF759FD52465B46FF
:101A600003F018F882462E488B463A464346052135
:101A70007844FFF74CFD3A46434603F00BF8024624
:101A80000B46002E504659460CDA02F0B3FD2246B2
:101A90002B4602F0FFFF01B022462B46BDE8F04F77
:101AA00003F0F6B802F0A6FD22462B4602F0F2FF44
:101AB0001C4A7A4402EBC603D3E9002303F0DAF9A7
:101AC00022462B4603F0D6F9174A7A4402EBC603A6
:101AD000D3E9002303F0DCF8009A002AB8BF81F0B4
:101AE0000041BDE8F88F0000000010440000F07FC6
:101AF000182D4454FB21F93FFB21F9BF0000DC3FC6
:101B00000000203E0000F33F0000F03F0000E63FF1
:101B1000008003400000F83F0000F0BF2E4B0000A3
:101B2000EC4A00008A4A0000524A00002DE9F04DBC
:101B30009446CCF1000423F000464CEA0404594FCB
:101B400046EAD4749A46884621F00042BC4206D840
:101B5000454240EA050442EAD474BC4204D9BDE8D7
:101B6000F04D6246FFF72BBDAAF14055A5F17F6508
:101B700055EA0C040BD0022404EAAA744A4DDFF89B
:101B80002CE144EAD87452EA000B04D00CE0BDE822
:101B9000F04DFFF7BBBE002C14BF012CBDE8F08D4B
:101BA000022C30D0032C32D056EA0C0B0AD0BE42A5
:101BB00020D1BA4209D126F0804622F08042334635
:101BC000114617E000291ADB25E0DFF8E4B0FB44FA
:101BD000002C04BFDBE90001BDE8F08D012C02BF41
:101BE000DBE9000181F00041BDE8F08D022C0AD054
:101BF000032C0CD0BA4212D1B8F1000F0BDA2A48EC
:101C00002C49BDE8F08D28462B49BDE8F08D2846CB
:101C10007146BDE8F08D24482849BDE8F08D921B3F
:101C200012153C2AC4BF204F244E10DCBAF1000F1D
:101C3000BEBF12F13C0F00273E4608DB624602F0B1
:101C400095FD21F00041FFF761FE07460E4694B175
:101C5000012C08BF86F000460DD0194A194B022C02
:101C60003846314615D003F005F92A46BDE8F04D57
:101C7000114B03F0FFB8002213463846314602F0FC
:101C8000CDFE04BF0220FEF783FC38463146BDE896
:101C9000F08D03F0EFF82A46BDE8F04D064B02F058
:101CA000F7BF00000000F07F182D4454FB2109C04D
:101CB000E6490000FB21F9BFFB210940FB21F93F68
:101CC000075C143326A6A13C2DE9F0410446E078D8
:101CD00000F0C006E07800F03F05607800F00100F9
:101CE00098B1EF102846E91705EB5171C910A5EB23
:101CF000C101491C01F0FF080B48006820B10A48E7
:101D0000414602683846904700BF607800F00800FE
:101D100030B10548406818B1B011034A516888478E
:101D20000020BDE8F08100006C00002010B56FF0CD
:101D30000400FFF751FA0A4800680A49B0FBF1F0C5
:101D4000094908700846007800EB4001C1EBC0105B
:101D50004FF6FF7101EAC0000449088010BD000081
:101D60000000002000127A004A0000204C000020F1
:101D70000146114A12884A434FF0E0235A6100227B
:101D80009A611A46126942F001021A6100BF4FF0CF
:101D9000E022106900F001021AB100F48032002A3A
:101DA000F5D04FF0E022126922F001024FF0E0235B
:101DB0001A6100229A6170474C0000200146114AC6
:101DC00012784A434FF0E0235A6100229A611A4682
:101DD000126942F001021A6100BF4FF0E02210695F
:101DE00000F001021AB100F48032002AF5D04FF061
:101DF000E022126922F001024FF0E0231A61002272
:101E00009A6170474A00002038B5044664B120202A
:101E10008DF8000028208DF8010030208DF8020098
:101E200038208DF8030004E0A32204216846FEF761
:101E300027FB6A46042140F69E2002F061FA01F079
:101E40004BFE38BD3EB5044602208DF80000CA2086
:101E50008DF80100E3208DF8020009208DF80300C1
:101E60006A460421682002F04BFAA3208DF8000096
:101E700004F0400048B1C0208DF80100C8208DF862
:101E80000200C2208DF8030006E0A3208DF80100B7
:101E90008DF802008DF8030004F4C07048B1C4202E
:101EA0008DF80400CC208DF80500C6208DF80600C2
:101EB00006E0A3208DF804008DF805008DF80600DB
:101EC000A3208DF807008DF808008DF809006A46F8
:101ED0000A2140F6A72002F013FA04F0030018B11B
:101EE00020208DF8000002E0D8208DF800006A461E
:101EF000012140F6B62002F003FA04F0200018B1E8
:101F0000012000F0ADF802E0002000F0A9F804F490
:101F1000C07008B304F4807060B1B2208DF8000086
:101F20008B208DF80100B6208DF802009B208DF8E3
:101F300003000BE0B0208DF8000080208DF8010038
:101F4000B4208DF8020090208DF803006A46042129
:101F500040F6A22002F0D4F904F0010020B3F820EA
:101F60008DF800006A4601214FF40B6002F0C8F9B9
:101F7000FA21072000F02CFC072000F0F3FB0120E1
:101F800000F013FC642000F0F3FC4FF4FA7000F052
:101F900002FDC821304800F0A3FB282000F0BCFB64
:101FA0000A2000F0CCFB08E0D8208DF800006A463B
:101FB00001214FF40B6002F0A3F904F0020018B104
:101FC000D9208DF8000002E0D8208DF800006A4684
:101FD000012140F23D7002F093F904F0040018B1C1
:101FE000012000F069F802E0002000F065F804F03C
:101FF000100018B10120FFF707FF02E00020FFF7F3
:1020000003FF44F008001549488101F065FD0020F8
:102010001249887304F0400018B10846807B801D87
:10202000887304F4C07020B10C48807B801D0B497C
:10203000887304F0140020B10848807B10300749F1
:10204000887304F0030020B10448807B001D03491D
:10205000887300203EBD000009E3CA026C00002026
:102060003EB504466CB10EA1D1E900208968CDE9E6
:10207000002002916A4609214FF4976002F040F96E
:102080003EBD0AA2D2E900109268CDE9010200919A
:102090006A4609214FF4976002F032F9F0E7000038
:1020A000B8AAB38DB4980D355D000000B8AAAAAAED
:1020B000B088C3C5C700000038B5044664B1C0206D
:1020C0008DF80000C2208DF80100C4208DF80200B8
:1020D000C6208DF8030004E08B2204216846FEF739
:1020E000CFF96A46042140F6982002F009F901F080
:1020F000F3FC38BD10B5C8234FF48062024940F6A6
:10210000F63001F07DFB10BDC85800082DE9F04FF6
:102110008DB00746884615469946DDE9166B0024C2
:10212000002030806B49887B5A4605A901F034FCB9
:1021300018B1601E0DB0BDE8F08F6648807A00F0DF
:102140001400002867D09DF8140000069DF81510B3
:1021500040EA01409DF8161040EA01209DF8171052
:10216000084328609DF8180000069DF8191040EA01
:1021700001409DF81A1040EA01209DF81B10084309
:1021800068609DF81C0000069DF81D1040EA0140A3
:102190009DF81E1040EA01209DF81F100843A8601A
:1021A0009DF8200000069DF8211040EA01409DF8AE
:1021B000221040EA01209DF823100843E86004F152
:1021C0001000C4B2286800140190686800140290DE
:1021D000A86800140390E868001404900198404334
:1021E000029901FB0100039901FB0100049901FB25
:1021F000010ABAF1706F02DBBAF1885F05DD01F008
:102200006BFC00203080401E94E7B6F9000040F4DB
:102210008070308000BF2F48807A00F0400020B3EB
:1022200005A9601C085C095D40EA012000B2A8F81D
:10223000000005A9E01C095C05AAA01C105C41EA8D
:10224000002000B2A8F8020005A9601D095C201D4D
:10225000105C41EA002000B2A8F80400A01DC4B23E
:10226000B6F9000040F0080030801A48408900F4B8
:10227000C07008B305A9601C085C095D40EA012034
:1022800000B2388005A9E01C095C05AAA01C105CFE
:1022900041EA002000B2788005A9601D095C201D7C
:1022A000105C41EA002000B2B880A01DC4B2B6F9AB
:1022B000000040F0700030800648807A00F0030093
:1022C00018B105A90819FFF7FFFC484600F02AFFDE
:1022D00000202FE76C00002070B588B0064601A8EA
:1022E00001F0E2F8BDF804000021C90341EA5045BD
:1022F000C4034448007A00F0030056F8200005901B
:102300004048007A00F0040010B105984042059062
:102310003C48007AC0F3C10056F8200006903948C6
:10232000007A00F0200010B106984042069035482F
:10233000007AC0F3811056F82000079031480089D8
:1023400000F4807010B10798404207900598C117BB
:10235000A0FB042301FB043100FB0510810041EACE
:10236000927005900698C117A0FB042301FB04316D
:1023700000FB0510810041EA927006900798C11792
:10238000A0FB042301FB043100FB0510810041EA9E
:10239000927007900598000E8DF808000598000CC3
:1023A0008DF809000598000A8DF80A000598C0B25A
:1023B0008DF80B000698000E8DF80C000698000CA6
:1023C0008DF80D000698000A8DF80E000698C0B230
:1023D0008DF80F000798000E8DF810000798000C7C
:1023E0008DF811000798000A8DF812000798C0B206
:1023F0008DF8130002AA0C214FF4257001F080FF24
:1024000008B070BD6C00002030B585B0044616A23F
:1024100007CA02AB07C3C82C03DD4FF0FF3005B07D
:1024200030BDC82090FBF4F0401E85B2280A8DF81C
:102430000000E8B28DF801006A46022140F2162041
:1024400001F05EFF10B14FF0FF30E8E702AA0C2167
:1024500040F6C12001F054FF10B14FF0FF30DEE72D
:10246000044884810020DAE7FEF2ABC4AAF1DFDF82
:10247000BBAFDFDF6C0000201FB504464848007A80
:1024800000F0030054F8200001904548007A00F065
:10249000040010B10198404201904148007AC0F315
:1024A000C10054F8200002903D48007A00F020005E
:1024B00010B10298404202903948007AC0F381106E
:1024C00054F8200003903648008900F4807010B161
:1024D0000398404203903349019880FB0101800F2B
:1024E00040EA810001902F49029880FB0110820090
:1024F00042EA917002902B49039880FB0110820000
:1025000042EA917003900198000E8DF80000019846
:10251000000C8DF801000198000A8DF80200019866
:10252000C0B28DF803006A4604214FF4747001F0C4
:10253000E7FE18B14FF0FF3004B010BD0298000E56
:102540008DF800000298000C8DF801000298000A36
:102550008DF802000298C0B28DF803006A4604218B
:102560004FF4757001F0CCFE10B14FF0FF30E3E78F
:102570000398000E8DF800000398000C8DF8010000
:102580000398000A8DF802000398C0B28DF803008A
:102590006A4604214FF4767001F0B2FECCE70000E9
:1025A0006C00002009E3CA0210B586B0044647A0BB
:1025B0000068039046A00068029046A00068019061
:1025C00045A00068009004F0030003A9085C8DF8A2
:1025D000140003A8C4F3C101405C8DF8150003A8E2
:1025E000C4F38111405C8DF8160004F0030002A9C9
:1025F000085C8DF8100002A8C4F3C101405C8DF89E
:10260000110002A8C4F38111405C8DF8120005AAE4
:10261000032140F2264001F073FE18B14FF0FF3065
:1026200006B010BD04AA032140F22A4001F068FE62
:1026300010B14FF0FF30F3E7019805900098049037
:1026400004F0040058B19DF8140040F001008DF82A
:1026500014009DF8100040F001008DF8100004F007
:10266000200058B19DF8150040F001008DF81500CC
:102670009DF8110040F001008DF8110004F4807005
:1026800058B19DF8160040F001008DF816009DF835
:10269000120040F001008DF8120005AA03214FF44A
:1026A000886001F02DFE10B14FF0FF30B8E704AAAA
:1026B000032140F2314001F023FE10B14FF0FF3012
:1026C000AEE7064804810020AAE700004CCD6C006C
:1026D0000CC92C0036567600264666006C00002099
:1026E000F8B505460E464FF47A7095FBF0F000FB06
:1026F00006F4200E8DF80000200C8DF80100200A51
:102700008DF80200E0B28DF803006A4604214FF410
:10271000AE7001F0F5FDF8BD38B50446052094FB18
:10272000F0F084B220128DF80000E0B28DF80100C4
:102730006A4602214FF4AD7001F0E2FD38BD38B5B4
:102740000446052094FBF0F084B220128DF80000BE
:10275000E0B28DF801006A4602214FF4AC7001F03E
:10276000CFFD38BD38B504460020009004F00100CC
:1027700020B19DF8000040F03000009004F002000D
:1027800020B19DF8000040F00C00009004F004001F
:1027900020B19DF8000040F0030000906A4601213E
:1027A0004FF4A47001F0ACFD38BD38B50446012CDF
:1027B00001DA012402E0042C00DD0424601EC0B212
:1027C00000906A46012140F24F1001F099FD38BD9A
:1027D0002DE9FC4706460F4606F0070010B1B7F595
:1027E000C86F03DD4FF0FF30BDE8FC87384602F0CC
:1027F0000FFE8146594902F0C1FC8046684600F050
:102800002DFE9DF80000022806D0042816D00828C6
:1028100026D0102848D135E04FF08D41404602F0D7
:102820003FFE814602F0BCFD84B24D49404602F0B5
:1028300037FE814602F0B4FD85B238E04FF08C419E
:10284000404602F02DFE814602F0AAFD84B24549C1
:10285000404602F025FE814602F0A2FD85B226E048
:102860004FF08B41404602F01BFE814602F098FD7E
:1028700084B23D49404602F013FE814602F090FDCD
:1028800085B214E04FF08A41404602F009FE8146CD
:1028900002F086FD84B23549404602F001FE8146D1
:1028A00002F07EFD85B202E04FF0FF309CE700BFF2
:1028B00020128DF80400E0B28DF8050028128DF882
:1028C0000600E8B28DF8070006F00100A0B101AAE9
:1028D00002214FF4EA7001F013FD10B14FF0FF3008
:1028E00082E70DF1060202214FF4927001F008FD1B
:1028F00010B14FF0FF3077E706F00200A0B101AA57
:1029000002214FF4EC7001F0FBFC10B14FF0FF30EE
:102910006AE70DF1060202214FF4947001F0F0FC19
:1029200010B14FF0FF305FE706F00400A0B101AA3C
:1029300002214FF4EE7001F0E3FC10B14FF0FF30D4
:1029400052E70DF1060202214FF4967001F0D8FC17
:1029500010B14FF0FF3047E7002045E70000484343
:10296000000040460000C045000040450000C04453
:1029700038B50446052094FBF0F085B228128DF896
:102980000000E8B28DF801006A4602214FF4EF70B2
:1029900001F0B6FC38BD38B50446052094FBF0F0D4
:1029A00085B228128DF80000E8B28DF801006A4661
:1029B00002214FF4ED7001F0A3FC38BD00BF054AC1
:1029C000128802F04002002AF9D0C2B2014B1B1D4E
:1029D0001A807047003801407CB50546284949688F
:1029E000087801AB04220D21FEF79FF908B10720FA
:1029F0007CBD9DF80700C0F301109DF8041001F0A4
:102A0000E00140EAE1008DF800009DF80700C0F306
:102A100081009DF8051001F0E00140EAE1008DF829
:102A200001009DF8070000F003009DF8061001F07A
:102A3000E00140EAE1008DF8020000241CE01DF8EE
:102A4000040018B9002045F8240013E00D4845F8AB
:102A5000240006E055F824000B4902F021FD45F85A
:102A600024001DF80400401EC0B20DF80400002828
:102A7000F0D100BF601CC4B2032CE0DB0020B7E73C
:102A8000140000207B14AE3E1D5A843F2DE9F04F08
:102A900087B005460C46914601208DF810000020B5
:102AA0008DF81100FE4A1268917CFD4A5268107838
:102AB00004AB0222FEF7DFF920B14FF0FF3007B080
:102AC000BDE8F08FC820FFF753F900208DF8100003
:102AD000F34A1268D17BF24A5268107804AB0122A3
:102AE000FEF7C9F910B14FF0FF30E8E7EC4A126881
:102AF0005179EB4A5268107804AB0122FEF7BBF91A
:102B000010B14FF0FF30DAE7E54A1268917CE44AF1
:102B10005268107804AB0122FEF7ADF910B14FF006
:102B2000FF30CCE7DE4A1268D17DDD4A526810786A
:102B300004AB0122FEF79FF910B14FF0FF30BEE762
:102B4000D74A12681179D64A5268107804AB01222C
:102B5000FEF791F910B14FF0FF30B0E70C208DF87F
:102B60001000CF4A12681179CD4A5268107804AB30
:102B70000122FEF780F910B14FF0FF309FE70F20E0
:102B8000FFF7F6F8C648806A407A8DF81000C44A0C
:102B900012689178C24A5268107804AB0122FEF79D
:102BA0006AF910B14FF0FF3089E7BD48806A007ABA
:102BB0008DF81000BA4A12685178B94A52681078F4
:102BC00004AB0122FEF757F910B14FF0FF3076E762
:102BD000B9F1000F07D0B248806A807A40F0E00077
:102BE0008DF8100004E0AE48806A807A8DF81000FD
:102BF000AB4A12689179AA4A5268107804AB012254
:102C0000FEF739F910B14FF0FF3058E7B9F1000F76
:102C100007D0A348806AC07A40F0E0008DF8100029
:102C200003E0A048C07A8DF810009D4A1268D1795F
:102C30009B4A5268107804AB0122FEF71CF910B1D0
:102C40004FF0FF303BE7B9F1000F02D0C820FFF78B
:102C50008FF840208DF81000914A12681179904A3F
:102C60005268107804AB0122FEF705F910B14FF05D
:102C7000FF3024E778208DF81000894A12685179D6
:102C8000874A5268107804AB0122FEF7F4F810B1BD
:102C90004FF0FF3013E783498889FFF769F8002078
:102CA0008DF810007E4A126851797D4A526810787A
:102CB00004AB0122FEF7DFF810B14FF0FF30FEE663
:102CC000774A1268917A764A5268107804AB0222E9
:102CD000FEF72BF810B14FF0FF30F0E69DF8110031
:102CE0009DF8101040EA012B0C209BFBF0F0C6B2BF
:102CF0000020A86068602860A06060602060824654
:102D000065E0674A1268D17A654A5268107804AB68
:102D10000C22FEF70AF810B14FF0FF30CFE69DF815
:102D200011009DF8101040EA012000B2ADF8080033
:102D30009DF813009DF8121040EA012000B2ADF892
:102D40000A009DF815009DF8141040EA012000B219
:102D5000ADF80C00BDF90810206808442060BDF9EA
:102D60000A10606808446060BDF90C10A06808444F
:102D7000A0609DF817009DF8161040EA012000B2EF
:102D8000ADF800009DF819009DF8181040EA0120E8
:102D900000B2ADF802009DF81B009DF81A1040EA41
:102DA000012000B2ADF80400BDF900102868084405
:102DB0002860BDF90210686808446860BDF9041015
:102DC000A8680844A8600AF1010000F0FF0AB245B3
:102DD00097DB3448D0F800C02868C117090441EADD
:102DE00010410704624600233846FDF714FA3246C4
:102DF0000023CDE90201FDF70EFA28602948D0F83A
:102E000000C06868C117090441EA1041070462461E
:102E100000233846FDF7FFF932460023CDE90201D1
:102E2000FDF7F9F968601F48D0F800C0A868C1171D
:102E3000090441EA10410704624600233846FDF7C1
:102E4000EAF932460023CDE90201FDF7E4F9A86072
:102E50001448D0F804C02068C117090441EA1041A1
:102E60000704624600233846FDF7D5F932460023B1
:102E7000CDE90201FDF7CFF920600A48D0F804C07F
:102E80006068C117090441EA104107046246002343
:102E90003846FDF7C0F932460023CDE9020103E0D0
:102EA00014000020A0580008FDF7B5F96060114833
:102EB000D0F804C0A068C117090441EA1041070412
:102EC000624600233846FDF7A6F932460023CDE9D5
:102ED0000201FDF7A0F9A060A068002804DDA06849
:102EE000A0F58030A06003E0A06800F58030A0600D
:102EF0000020E4E5A05800082DE9FC5F06460F46D7
:102F000000253D494968087801AB03220D21FDF7F2
:102F10000CFF10B10720BDE8FC9F9DF8040000F0F5
:102F20001F008DF804009DF8050000F01F008DF8CB
:102F300005009DF8060000F01F008DF80600002433
:102F400056E056F8240057F82410A0EB010BBBF113
:102F5000000F01DB594601E0CBF10001084602F009
:102F60003FFA4FF08F41009002F008F9814601A826
:102F7000005D68B32149086802F04AFA8346594661
:102F80001F4802F0FBF8804604E01E49404602F06C
:102F900087FA804601A8005D401EC0B201A908550D
:102FA0000028F2D14146484602F0E8F883464FF047
:102FB0007E5102F073FB82462AF0004B0F48816974
:102FC000584602F039FB12D20120A04005430EE022
:102FD0000A480169484602F02FFA05D307484169BB
:102FE000484602F029FB02D20120A0400543641CA0
:102FF000032CA6DB28468EE714000020A05800080A
:1030000000B04C4554E3853F10B50446204600F01F
:103010000FF80346E01C00F00BF843EAC00083B24F
:10302000A01D00F005F843EA801083B2184610BDD9
:10303000014691F90020002A01DD00201EE091F9EF
:103040000020002A01DA042018E091F90120002A6A
:1030500001DD012012E091F90120002A01DA0520AA
:103060000CE091F90220002A01DD022006E091F92E
:103070000220002A01DA062000E007207047000045
:103080000EB54FF4A060FDF761FF4FF4E13001F0A1
:103090002FFAFEF74BFEFDF763FCFDF7C9FD02E0DA
:1030A0001420FEF765FE00F089F90028F8D131E020
:1030B0000220FEF75DFE6A4601A902A800F06CF846
:1030C00028B915480068C0431449C1F8B4010098F4
:1030D00080F000481249404602F0E2F9074602F04B
:1030E00043F904B2029880F000480D49404602F0CE
:1030F000D7F9074602F038F905B20949019802F0FC
:10310000CFF9074602F030F906B22246294630468A
:10311000FDF7A2FFCCE70000B401224200002242EA
:103120000000C8427047000070B50446002624F035
:103130000104184890F8240008B1002070BD15481B
:10314000807A10B94FF0FF30F8E71248057C807A9A
:103150002040104908740846007CA04202D04FF07D
:10316000FF3600E0002614B90A48007D18B101209E
:1031700001F050F902E0002001F04CF93CB100F000
:10318000ABFC20B1034805744FF0FF30D6E7304662
:10319000D4E70000140000202DE9F04F99B0044658
:1031A0000D4616464FF07E574FF000084FF00009CD
:1031B0004FF0000A12A813A918AB0EAACDE900100F
:1031C00014A916A8FEF7A2FF18B1012019B0BDE896
:1031D000F08FBDF84C0000F4807000287ED00E986F
:1031E00002F0FEF883464FF09D4101F0C7FF07460D
:1031F0000F9802F0F5F883464FF09D4101F0BEFFB5
:103200008046109802F0ECF883464FF09D4101F0A3
:10321000B5FF8146119802F0E3F883464FF09D41D7
:1032200001F0ACFF824639464FF0804002F038F999
:103230004946059002F034F9414607904FF040406E
:1032400002F02EF95146059002F02AF906900799EE
:1032500001F026FF834601F0F7FECDE90801FEF7F5
:103260001DFA4FF06632544BCDE90A0101F012FC11
:10327000CDE90C0101F08CF9206049464FF0804007
:1032800002F00EF94946029002F00AF94146049014
:103290004FF0404002F004F94146029002F000F97C
:1032A0000390049902F0FAF983464FF07E5101F041
:1032B000F7FE059001F0C8FECDE9080139464FF050
:1032C000804002F0EDF84146039002F0E9F84946EB
:1032D00004904FF0804002F0E3F800E068E05146CF
:1032E000039002F0DDF88346049901F0D9FE0590C1
:1032F00001F0AAFECDE90601DDE90823FEF716FC80
:103300004FF066322C4BCDE90A0101F0C3FBCDE949
:103310000C0101F03DF928605146504602F0C0F81A
:1033200049460490484602F0BBF8414603904046A7
:1033300002F0B6F839460190384602F0B1F8009034
:10334000019901F0ADFE0290039902F0A7F98346BE
:10335000049902F0A3F9059001F076FECDE9080189
:103360005146384602F09CF849460490404602F027
:1033700097F80390049901F093FE4FF08041059077
:1033800002F08EF8834601F05FFECDE90601DDE92B
:103390000823FEF7CBFB4FF06632074BCDE90A015D
:1033A00001F078FBCDE90C0101F0F2F8306001E0AA
:1033B00002200BE7002009E766A64C4070B5002408
:1033C000FDF716FB00F024F9002840D1782000F02A
:1033D0002FFFC4B20CB1012070BD7820FFF7A4FE0E
:1033E000C4B20CB10220F7E7642000F0D3FEC4B2EF
:1033F0000CB10320F0E7FEF77DFEC4B20CB104204F
:10340000EAE71548FFF700FE0546FFF7CDF8C4B21E
:103410000CB10520E0E740F27310FEF713FDC4B2D3
:103420000CB10620D8E76420FEF7EEFFC4B20CB161
:103430000720D1E700F0A4FF04460CB10820CBE739
:10344000012000F0A3FDC4B21CB10920C4E70A208A
:10345000C2E70020C0E700004000002001461148FC
:10346000407A30B1012807D0022808D003280CD1B7
:1034700008E0022008700BE00420087008E0082033
:10348000087005E01020087002E04FF0FF30704730
:1034900000BF0448C07C18B108784006000E0870D0
:1034A0000020F4E71400002001461348407A30B1B0
:1034B000012808D002280AD0032810D10BE04FF4CD
:1034C000804008800EE041F69C7008800AE04FF4CE
:1034D0008050088006E04FF40060088002E04FF062
:1034E000FF30704700BF0448C07C10B1088840100E
:1034F00008800020F5E70000140000200146024883
:10350000007C0870002070471400002001460F481E
:10351000007A30B1012807D0022809D003280FD142
:103520000AE0FA2008800EE04FF4FA7008800AE002
:103530004FF47A70088006E04FF4FA60088002E0E9
:103540000020088000BF00BF00207047140000204A
:1035500001460E48007A30B1012807D0022808D071
:1035600003280CD108E00A4808600BE0094808600D
:1035700008E00948086005E00848086002E04FF0EC
:10358000FF30704700BF0020FBE700001400002060
:10359000000003430000834233330342333383414B
:1035A00001461248C07A082817D2DFE800F0170455
:1035B000070A0D101318BC20088013E06220088051
:1035C00010E02A2008800DE0142008800AE00A207C
:1035D000088007E00520088004E000BF00BF00204D
:1035E000088000BF00BF00207047000014000020CA
:1035F0000146064890F8240010B14FF0FF307047A4
:103600000248C08908800020F9E70000140000206B
:103610001CB580208DF80000654A1268917C644AD0
:10362000526810786B460122FDF725FC10B14FF06F
:10363000FF301CBD6420FEF79BFB00208DF80000CE
:103640005B4A1268917C5A4A526810786B46012294
:10365000FDF711FC10B14FF0FF30EAE7544A126851
:10366000917D534A526810786B460622FDF75DFB48
:1036700010B14FF0FF30DCE79DF80500C007400FA8
:103680009DF8031001F0010140EA41009DF801108E
:1036900001F0010140EA010494B1012C03D10121A0
:1036A0004348C17431E0022C03D100214048C17469
:1036B0002BE021463FA0FCF7D3FD4FF0FF30B8E7E9
:1036C0003B4A1268D1783A4A526810786B46012218
:1036D000FDF72BFB10B14FF0FF30AAE79DF800007B
:1036E00000F00F042CB93D48FCF7BAFD4FF0FF3055
:1036F0009FE7042C06D13AA0FCF7B2FD01212C482B
:10370000C17402E000212A48C174FF212848817257
:10371000FF2027490872FF2125484172C1724FF6E8
:10372000FF71C181FF21017481740121017380F84F
:103730002210002180F823104175017516300160B8
:1037400041608160163880F8241080F82510C1840B
:103750004FF4FA6000F062FC10B14FF0FF3068E700
:10376000022000F02BFB10B14FF0FF3061E72A2060
:1037700000F0CEFC10B14FF0FF305AE7322000F0DD
:1037800009FD10B14FF0FF3053E70020FFF7CCFCEC
:1037900010B14FF0FF304CE7002000F051FB10B1AA
:1037A0004FF0FF3045E7002000F042FD002040E7E9
:1037B00014000020556E737570706F72746564200C
:1037C000736F6674776172652070726F647563746D
:1037D000207265762025642E0A000000C06500086E
:1037E00048616C662073656E736974697669747973
:1037F000207061727420666F756E642E0A0000007E
:103800002DE9F04385B005460E4690469946294875
:1038100090F8250020B14FF0FF3005B0BDE8F083EF
:1038200016B94FF0FF30F8E7002423E0281B1028DA
:1038300001DD102000E0281B87B2321939462046EE
:1038400000F05EFD10B14FF0FF30E6E701AA394607
:10385000204600F001F910B14FF0FF30DDE73019DC
:103860003A4601A9FCF7E0FD10B16FF00100D4E782
:10387000E01984B2AC42D9DB4FEA28208DF8000071
:1038800008F0FF008DF801000A4A1268917E094A8B
:10389000526810786B460222FDF7EDFA10B14FF036
:1038A000FF30BAE70121034880F82510A0F82690E0
:1038B0000020B2E71400002038B50446282C02DDB1
:1038C0004FF0FF3038BDDCB9002000F0EBFB0020EA
:1038D0008DF8000007208DF801002E4A1268917CB7
:1038E0002C4A526810786B460222FDF7C4FA10B1D8
:1038F0004FF0FF30E6E70021264801750020E1E7A0
:10390000012000F0CFFB20208DF80000012C06D113
:1039100000208DF80100052000F0FAFB17E0052CCF
:1039200006DC01208DF80100052000F0F1FB0EE01F
:10393000142C06DC02208DF801000A2000F0E8FBC0
:1039400005E003208DF80100142000F0E1FB9DF854
:103950000100072101EB8010C0B28DF801000D4A73
:103960001268917C0B4A526810786B460222FDF770
:1039700082FA10B14FF0FF30A4E7082105488172A8
:1039800000210173012101750020FFF7CDFB00200C
:1039900098E7000014000020F8B504460F461646CC
:1039A0002C4890F8240010B94FF0FF30F8BD29489A
:1039B000807A10B94FF0FF30F8E7264A1268917A02
:1039C000244A526810786B460222FDF7AEF910B116
:1039D0004FF0FF30EAE79DF801009DF8001040EA43
:1039E0000125A54203DA00203070401EDEE71948A9
:1039F00040684088B5EB600F17DD164A1268517CAD
:103A0000144A526810786B460122FDF78EF910B106
:103A10004FF0FF30CAE79DF8000000F0100020B121
:103A200000F05AF86FF00100C0E7E2B2094B1B68E2
:103A3000D97A084B5B6818783B46FDF776F910B1E8
:103A40004FF0FF30B2E795FBF4F0401E30700020DD
:103A5000ACE7000014000020F8B504460D461646F9
:103A600016B94FF0FF30F8BD1A48807A10B94FF000
:103A7000FF30F8E720128DF80000E0B28DF8010069
:103A80009DF801002844134949684989884202DDAC
:103A90004FF0FF30E7E70F4A1268117E0D4A526877
:103AA00010786B460222FDF7E6F910B14FF0FF30B7
:103AB000D9E7EAB2074B1B68597D064B5B6818785B
:103AC0003346FDF732F910B14FF0FF30CBE700205D
:103AD000C9E700001400002008B57048807A10B9CA
:103AE0004FF0FF3008BD002000906C4A1268D17B77
:103AF0006A4A526810786B460122FDF7BCF910B192
:103B00004FF0FF30EEE7654A12685179634A526818
:103B100010786B460122FDF7AEF910B14FF0FF307F
:103B2000E0E75E4A126811795C4A526810786B4689
:103B30000122FDF7A0F910B14FF0FF30D2E757484E
:103B400090F82400002853D00C200090534A1268AB
:103B50001179524A526810786B460122FDF78BF9B1
:103B600010B14FF0FF30BDE73220FEF701F9C02061
:103B700000904A48807A00F0010020B19DF80000D2
:103B800040F020000090454A12681179434A52687B
:103B900010786B460122FDF76EF910B14FF0FF303F
:103BA000A0E73E48407C10B10220009001E00020D8
:103BB00000903A4A1268D17B384A526810786B46B6
:103BC0000122FDF758F910B14FF0FF308AE70020CD
:103BD0000090324A12685179304A526810786B4628
:103BE0000122FDF748F9002855D04FF0FF3079E762
:103BF00004200090294A12681179284A52681078E6
:103C00006B460122FDF737F910B14FF0FF3069E73D
:103C10002248807C20B92148807A00F0010010B948
:103C20004020009001E0602000901C4A1268117949
:103C30001A4A526810786B460122FDF71CF910B140
:103C40004FF0FF304EE73220FEF792F81348407CE9
:103C500010B10120009001E0002000900F4A12688E
:103C6000D17B0E4A526810786B460122FDF703F9AA
:103C700010B14FF0FF3035E7084A12685179074A12
:103C800052681078054B10330122FDF7F4F810B19B
:103C90004FF0FF3026E7002024E70000140000204A
:103CA0002DE9F04F8DB083460F4602200C9042481C
:103CB00090F8240020B1002000F068F9012600E00F
:103CC000002603A8FFF722FC05A8FFF7C7FB01A801
:103CD000FFF766FC02A8FFF78BFC374890F80AA0B4
:103CE00004A8FFF70BFC002407E0002239465846E1
:103CF000FEF7CCFE00B902E0641C022CF5DB00BF2D
:103D0000022C01D1002528E0002407E0012206A9A9
:103D100009A8FEF7BBFE00B902E0641C022CF5DB2B
:103D200000BF022C01D1002517E006A93846FDF797
:103D300061FC00F0FF0809A95846FFF7DDF800F024
:103D4000FF090025B9F1000F01D145F00105B8F1D7
:103D5000000F01D145F0020500BFFF20164908728F
:103D6000FF2115484172C1724FF6FF71C181FF21D9
:103D70008172017401210173BDF80C0000F04EF94D
:103D80009DF8140000F01AF8BDF8040000F0C0F926
:103D9000BDF8080000F0FEF9504600F049FA9DF821
:103DA0001000FFF7C1F916B1012000F0EFF8284626
:103DB0000DB0BDE8F08F00001400002038B50446B7
:103DC0001E48807A10B94FF0FF3038BD022C06D063
:103DD000042C07D0082C08D0102C0CD108E00020AF
:103DE00000900BE00820009008E01020009005E013
:103DF0001820009002E04FF0FF30E6E700BF0F48C8
:103E0000407A9DF80010B0EBE10F01D10020DCE713
:103E10000A4A1268D179094A526810786B46012221
:103E2000FDF729F810B14FF0FF30CEE79DF8000004
:103E3000C110024841720020C7E7000014000020B2
:103E400038B504465048807CA04201D1002038BDDE
:103E5000002C46D04C4A126811794B4A52681078AF
:103E60006B460122FCF761FF10B14FF0FF30EEE727
:103E70009DF8000020F020000090434A126811795C
:103E8000414A526810786B460122FCF7F4FF10B1EA
:103E90004FF0FF30DBE70320FDF76AFF02200090C0
:103EA000394890F8220020B19DF8000040F08000D1
:103EB0000090354890F8230020B19DF8000040F0B4
:103EC00030000090304A1268117D2F4A52681078F5
:103ED0006B460122FCF7CFFF002851D04FF0FF3096
:103EE000B5E7294A12681179274A526810786B465B
:103EF0000122FCF71AFF10B14FF0FF30A7E722486C
:103F0000807A00F0010028B19DF8000040F0200008
:103F1000009004E09DF8000020F0200000901A4A74
:103F200012681179184A526810786B460122FCF722
:103F3000A2FF10B14FF0FF3089E70320FDF718FF13
:103F4000114890F8220010B18020009001E000207C
:103F500000900D4890F8230020B19DF8000040F03B
:103F600030000090084A1268117D074A52681078A4
:103F70006B460122FCF77FFF10B14FF0FF3066E780
:103F800001488474002062E71400002038B504461C
:103F9000214890F82400A04201D1002038BD24B36C
:103FA0001D4890F8250010B94FF0FF30F6E70020CB
:103FB00000F030FA0020FFF743FF1749C88C00F0EB
:103FC000E9F8002000901449496808786B460122FE
:103FD0002321FCF750FF01210F4880F82410012015
:103FE00000F018FAFFF778FD13E0002000F012FA55
:103FF0000948007C00900849496808786B4601220E
:104000002321FCF738FF0021034880F82410FFF734
:1040100063FD0020C2E700001400002038B504460C
:104020001F48807A10B94FF0FF3038BDFA2C09D004
:10403000B4F5FA7F09D0B4F57A7F09D0B4F5FA6FF8
:104040000CD108E0002000900BE00820009008E070
:104050001020009005E01820009002E04FF0FF30A3
:10406000E3E700BF0E48007A9DF80010B0EBE10FC7
:1040700001D10020D9E70A4A12689179084A5268AA
:1040800010786B460122FCF7F6FE10B14FF0FF30BE
:10409000CBE79DF80000C010014908720020C4E77A
:1040A0001400002038B50446184890F82300A042B8
:1040B00001D1002038BD14B13020009001E0002073
:1040C00000901248807C20B19DF8000040F0020072
:1040D00000900E4890F8220020B19DF8000040F0BA
:1040E00080000090094A1268117D084A52681078D1
:1040F0006B460122FCF7BFFE10B14FF0FF30D9E74D
:10410000024880F823400020D4E70000140000207B
:1041100038B504461E48807A10B94FF0FF3038BDDC
:10412000BC2C02DB0120009015E0622C02DB022097
:10413000009010E02A2C02DB032000900BE0142CEE
:1041400002DB0420009006E00A2C02DB0520009030
:1041500001E0062000900E48C07A9DF800108842C9
:1041600001D10020DBE70A4A12689178084A5268B8
:1041700010786B460122FCF77EFE10B14FF0FF3045
:10418000CDE79DF800100248C1720020C7E700008B
:104190001400002038B504462448807A10B94FF046
:1041A000FF3038BD214890F8240010B14FF0FF30A7
:1041B000F7E71E48007D50B134B1282C04DCE0B292
:1041C000FFF77AFB0020ECE70020FFF775FB042CDB
:1041D00001DA042404E0B4F57A7F01DD4FF47A7447
:1041E0004FF47A7090FBF4F0401EC0B200900F4A7A
:1041F000126851780D4A526810786B460122FCF71C
:104200003AFE10B14FF0FF30CBE79DF80000401CA4
:104210004FF47A7191FBF0F081B20448C1810146FC
:10422000C9894810FFF774FF0020BAE71400002086
:1042300038B5044604F0700010B10120009005E08C
:1042400014B10020009001E0402000902B4A126839
:10425000917C2A4A526810786B460122FCF70BFECB
:1042600020B1002125488172481E38BD9DF800000C
:1042700020F04001214801730020009004F040002C
:1042800020B99DF8000040F00400009004F02000E8
:1042900020B99DF8000040F00200009004F01000EA
:1042A00020B99DF8000040F00100009004F00800E3
:1042B00020B99DF8000040F0380000900F4A1268C5
:1042C000D17C0E4A526810786B460122FCF7D3FD70
:1042D00020B1002109488172481EC6E724B1082C8C
:1042E00002D00020FFF7DEFE044884720021017531
:1042F0003220FDF73DFD0020B7E70000140000204C
:10430000F8B504460D46164616B94FF0FF30F8BD15
:104310001A48807A10B94FF0FF30F8E720128DF874
:104320000000E0B28DF801009DF801002844134917
:1043300049684989884202DD4FF0FF30E7E70F4ABC
:104340001268117E0D4A526810786B460222FCF703
:1043500092FD10B14FF0FF30D9E7EAB2074B1B686E
:10436000597D064B5B6818783346FCF784FD10B125
:104370004FF0FF30CBE70020C9E700001400002019
:1043800070B588B002A905A8FFF78AFC0446032C83
:104390003ED101A8FFF7DCF8059801F021F80646A8
:1043A000019901F07DF8054600F0DEFF05900698C2
:1043B00001F016F80646019901F072F8054600F082
:1043C000D3FF0690079801F00BF80646019901F01B
:1043D00067F8054600F0C8FF079005A8FEF74CF8FF
:1043E0006846FFF761F8BDF8001002984843029054
:1043F000BDF80010039848430390BDF800100498DE
:104400004843049002A8FDF767FF002008B070BD84
:104410000120FBE738B50446214890F82400C0B1DC
:1044200014B10220009001E0002000901C4A1268A4
:10443000D17B1B4A526810786B460122FCF71BFDAA
:1044400010B14FF0FF3038BD9DF800101448417492
:1044500023E01348807A10B94FF0FF30F3E724B11E
:104460000F48407C08B10020EDE714B10120009016
:1044700001E0002000900A4A1268D17B084A526885
:1044800010786B460122FCF7F6FC10B14FF0FF30BC
:10449000D9E79DF80010024841740020D3E70000DE
:1044A000140000202DE9F04106460F4600F0FCFB09
:1044B000041E0D4618BF0120284320F00040C0F123
:1044C0007F6000F1E040C00F0ED0301C18BF01200B
:1044D000384320F00040C0F17F6000F1E040C00FA1
:1044E00004BF0120FCF754F820462946BDE8F081BE
:1044F00010B586B00446012144F20400FCF732FDF9
:104500004FF40070ADF8140003208DF81600182049
:104510008DF8170005A91C48FCF74BF94FF4806093
:10452000ADF8140004208DF8170005A91648FCF713
:1045300040F925208DF8000003208DF801008DF84A
:10454000020001208DF803006846FCF7C7FC0194C7
:104550000020ADF80800ADF80A00ADF80C00ADF889
:1045600010000C20ADF80E0001A90848FCF744FF2C
:10457000012240F225510548FCF719FF01210348AB
:10458000FCF7D2FE06B010BD000801400038014023
:1045900021F00042A2F16052B2F5801F01F0004309
:1045A00028BFD2F17F6C0BD95FEA001C43EAC2023C
:1045B00042EB507018BF704728BF20F001007047D1
:1045C000B2F5801FBCBF184670474FEA410C1CF57E
:1045D000001F02D2084601F02AB870B500F004FBB3
:1045E00000000089FFF7F6BF4FF00040A0F5800003
:1045F0007047000010B591EA030F48BF83F00043F5
:1046000000F14084841A71EB030C05D2121943EBBC
:104610000C03001B61EB0C01DFF824E14FEA11549D
:10462000A4EB135C1EEA430F18BF9EEA445F73D0ED
:1046300023EA0E03DCF1200E21EA045143F4801337
:1046400032D322FA0CFE10EB0E0023FA0CFE41EBE3
:104650000E01CCF1200E03FA0EFE10EB0E0051F10C
:104660000001B1F5801FCCF1200E32D201EB0451D4
:1046700012FA0EF2BDE8104058BF7047401C38BF18
:104680005FEA420218BF7047002814BF20F0010003
:1046900041F100014FEA410313F5001F38BF704795
:1046A000A1F1C04100F0EEBA012A43EB0302ACF1E4
:1046B000200CDCF11F0E32BF4FF0000E23FA0CF37A
:1046C00010EB030041EB0451B4EB115FD0D0A1EB30
:1046D000045101F5801149085FEA300001EB0451F3
:1046E0000ED350F1000038BF12FA0EFE08D1BDE81B
:1046F0001040C9E7401C38BF5FEA4202CAD1C3E795
:10470000BDE810404FEA410313F5001F38BF704762
:10471000A1F1C04100F0B6BA9EEA445F08D011EAA8
:104720005E0FBDE8104004BF01F00041002070475B
:10473000BDE8104070B500F057FA00BF64FBBE3E04
:104740000000E0FF02494FF0000001F01CB800BF7C
:104750000000F87F491058BFC1F140415B1058BFBD
:10476000C3F140438B42EFF3008070472DE9C04115
:1047700030B4DFF8A0C23CEA111418BF3CEA1314AD
:1047800000F0EC8081EA03051CEA111444EAD574B8
:1047900018BF1CEA131500F0C780A4EB05044FF006
:1047A000004545EAC12145EAC32341EA505143EAA5
:1047B000525304F17F74994204F500344FEAC0204B
:1047C0004FEAC22208BF904200F09C804FEA136576
:1047D0000FF24016765D4FEA134506FB05F7C7F169
:1047E000807706FB07F74FEAD737A7FB03687642C7
:1047F000C8F58038A7FB06CE38BFA8F1010807FB33
:1048000008E64FF0000EA6FB028CE6FB03CEDCF1BF
:10481000000CCEF1004E38BFAEF1010EA6FB0C58D5
:104820004FF000074FF00005E6FB0E87A1FB08C61E
:10483000A0FB07CE16EB0E0645F10005E1FB076570
:1048400015F1E04E7EBFA4F580345FEA46066D4167
:1048500016F1800745F100054FEA17274FEA066673
:1048600047EA0567A6F1DE46B6F1805F4FEA1525F7
:104870001FD9384624F0010C05EBC471BCF1FE6F62
:1048800001EB0C1102D8F0BCBDE8008124425CBFF2
:1048900001F5801E9EEAC47F02D4F0BCBDE8008111
:1048A000244238D4F0BCA1F1C041BDE8004100F081
:1048B000E9B94FEAD22242EA43524FEAD323A7FB97
:1048C00002864FEAD02040EA415007FB03661EEA09
:1048D0000E0F4FEAD12105FB026658BFA6EB00562A
:1048E000B6EB00564FEA520E4EEAC37E18EB0E0EA0
:1048F00056EB530EBDD518EB02085E417F1C55F1F7
:104900000005B6E74FF480154FF000074FF00006A2
:104910004FF00008ADE7F0BC4FF0000001F1C041DE
:1049200001F00041BDE8008111EA0C1F0CEA1315EB
:1049300000D00CE013EA0C1F00F025804FF00000BF
:10494000F0BC81EA030101F00041BDE80081F0BC48
:10495000BDE8004181EA030100F094B9F0BCBDE874
:10496000004170B500F040F9097EFC3E00F007B848
:1049700081EA03014FF0000001F00041704781EA35
:10498000030100F07FB9F0BCBDE800414FF000002A
:1049900021497047FFFDFBF9F7F5F4F2F0EEEDEB7E
:1049A000E9E8E6E4E3E1E0DEDDDBDAD8D7D5D4D32D
:1049B000D1D0CFCDCCCBCAC8C7C6C5C4C2C1C0BF79
:1049C000BEBDBCBBBAB9B8B7B6B5B4B3B2B1B0AF7F
:1049D000AEADACABAAA9A8A8A7A6A5A4A3A3A2A163
:1049E000A09F9F9E9D9C9C9B9A999998979796951E
:1049F00095949393929191908F8F8E8E8D8C8C8BBA
:104A00008B8A898988888787868585848483838241
:104A1000828181800000FF070000F87F51EA030CCB
:104A200017D41CF5801F58BFBCF5801F00F106800D
:104A3000994218BF704708BF9042704707D711F5D9
:104A4000801F58BF13F5801F19D4994270478942BF
:104A500070471CF5801F08D5BCF5801FF7D58B4229
:104A600018BF704708BF824270474FF4001C1CEB10
:104A7000410F38BF1CEB430F01D28B42704770B51A
:104A800000F0B2F8922449004FF000514FF08053EB
:104A9000FFF760BEDFF848C170B51CEA111E1EBFEB
:104AA0001CEA13159EEA0C0F95EA0C0F00F06F80BC
:104AB00081EA030423EA4C134EEAD47E21EA4C1126
:104AC00041F4801143F48013AE44A1FB024CA0FBDF
:104AD0000365AEF17F7E361955EB0C05A1FB034C47
:104AE0004CF10003A0FB021C16EB0C06654153F1D0
:104AF0000003094218BF46F0010613F4007F0BD1F2
:104B00004FEA03314FEA0530340341EA155140EAD8
:104B100016506FF003020AE04FEAC3214FEAC520A6
:104B2000F40241EA555140EA56506FF0020202EB9E
:104B30002E4201EB025585EACE710AD05FEA440CA1
:104B400018BF24F0004450F1000041F1000120EAB8
:104B5000D47040F2FE7C624500D270BDA84214BF02
:104B60004FF080444FF04044002E08BF0024BEF1B7
:104B7000806FA8BFA1F1C041BDE8704080F2828083
:104B80004FF0000001F1C04101F0004170479EEA82
:104B90000C0F0CEA131518BF95EA0C0F06D04FF056
:104BA000000081EA030E0EF0004170BD00F01CF819
:104BB0008900013E00F007B800F009B84FEA430C45
:104BC0005FEA5C5C08D081EA030100F05BB84FEA61
:104BD000410C5FEA5C5CF6D14FF000000149704780
:104BE0000000FF070000F87F0EF1020E2EF0030E0A
:104BF0005EF8046B364205D4012A43EB030515F534
:104C0000001F12D8012841EB010C1CF5001F0CD825
:104C10000ED14FEAD17C15F5001F0CEB4C0C0CF1BA
:104C2000020C08BF4CEBD37C04E04FF0080C01E011
:104C30004FEAD37C0CEB4C0526FA05F606F0070686
:104C4000B6F1040C06D20EEB860CBDE870404CF0B9
:104C5000010C6047DFE80CF0090B02024FF0004145
:104C60004FF00000A1F5002170BD19461046012843
:104C700051EB010418BFD4F5001484BF002001F0EB
:104C8000004170BD0808A0F500114FEA31017047DE
:104C900091EA030F10B581F000413FF5B3AC83F00A
:104CA000004300F0EFB800002DE9F04101F5801C51
:104CB000BCF5001FC0F2C3804FEA115C21EA0C5121
:104CC0000CF1FD0C41F480115FEA5C0C0CF5C07C2A
:104CD00001D3400049413DA4890241EA9051870235
:104CE0008E0E0A0CA45D04FB04F602FB06F6C6F168
:104CF0004046A4FB0662F60D46EA422606FB06F491
:104D0000A4FB01235242C3F1404338BF5B1EA6FB04
:104D100002420024E6FB0324D20B42EA4446A6FBEF
:104D20000623A1FB02E2A3FB07E4A4184FF0000254
:104D300052F10002E3FB01426442C2F1404E38BF2F
:104D4000AEF1010EA6FB04234FF00002E6FB0E328B
:104D5000A2FB03464FF00004B61954F10004E2FB35
:104D60000264A1FB06E6A4FB07E816EB08064FF079
:104D7000000858F10008E4FB01687642C8F1405889
:104D800038BFA8F10108A2FB06E4A3FB08E52D1932
:104D90004FF0000454F10004E2FB0854A1FB05E6C7
:104DA000A7FB04E818EB06084FF0000656F10006D2
:104DB000E1FB048618F1200556F10006A809A8F1C8
:104DC0001B08B10908F03F08B8F10A0F40EA8660F5
:104DD0001CD901EB0C51BDE8F08100BFFCF5EEE8F9
:104DE000E2DDD8D3CFCBC7C3C0BDB9B6B4B1AEAC8A
:104DF000A9A7A5A3A19F9D9B9A9896959392908F02
:104E00008D8C8B898887868584838281A0FB00684E
:104E100000FB01F208EB4208B8EB872807D53418ED
:104E200058EB0104D5D5401C51F10001D1E7341AEB
:104E300078EB0104CDD4401E71F10001C9E75FEAAF
:104E40004C0C5FEA9C5C0DD105D34FF0000001F0E3
:104E50000041BDE8F081BDE8F04170B5FFF7C4FE48
:104E60006DDBFFBEBDE8F0414FF000000049704728
:104E70000000F87F10B591EA030F48BF83F00043AC
:104E80003FF5C0AB841A71EB030C07D212198CF0FA
:104E9000004C43EB0C03001B61EB0C01DFF8A4E1B9
:104EA0004FEA1154A4EB135C1EEA430F18BF9EEAAD
:104EB000445F00F0B08023EA6E03524221EA0451BD
:104EC000C3EB6E0338BF5B1EDCF1200E25D322FA44
:104ED0000CFE10EB0E0043FA0CFE41EB0E01CCF180
:104EE000200E03FA0EFE10EB0E0051F10001CCF182
:104EF000200E29D412FA0EF201EB0451BDE8104045
:104F000058BF7047401C1CBFB2F1004F70470028CB
:104F10000CBF491C20F00100704712EB020E43EB5E
:104F2000030218BF4FF0010E4EEA4202ACF1200C12
:104F3000DCF11E0E54D943FA0CFE10EB0E0051F1B9
:104F4000FF31CCF11E0ED5D50EF1010E12FA0EFE78
:104F5000404141EB010101EB445C5FEA5C5C10D92C
:104F600010EBDE7001EB045138BFBEF1004FBDE81D
:104F7000104018BF704700280CBF491C20F00100EA
:104F8000704730D24FEAD42C11F5001124F400649C
:104F90001BD0B1FA81F20B3AA41AA41ED2F120035D
:104FA000914030FA03F31943904001EBCC71002C8F
:104FB00001EB0451BDE81040A8BF704701F1C041AA
:104FC0004FF0000001F000417047B0FA80F310FA92
:104FD00003F100D110BDE41A173C4805C90AE4E703
:104FE00001EB045110BD491001EB0451BDE8104024
:104FF0004FEA300002E04FF0000170474A0008BF5E
:105000000042F8D0B2F5001F28BF704701F0004100
:105010004FF0000070479EEA445F07D011EA5E0F30
:10502000BDE8104004BF002100207047BDE81040DB
:1050300070B5FFF7D9FD00BF40DFF63E83F00041B9
:10504000104670470000E0FF43004FEAD30C4FEAE0
:105050003C0C43401FBF40070CF1605113F0FE4F62
:1050600070471CF0006F03D100200CF00041704726
:105070000CF0004343EA507010B540EACC0000F059
:1050800090FA00BF000000924FEA0001FFF7FABD5E
:105090004FF000414FF00000A1F5002170470000E3
:1050A00090EA010F48BF81F0004100F1FE82421AF0
:1050B0003CBF801A89184FEAD0524FF07F4C1CEA4F
:1050C000410FA2EBD15318BF9CEA026F00F03B8066
:1050D0004FF0004C4CEA00204CEA012121FA03FC7D
:1050E00010EB0C0C1ED202F1FF325FEA1C2040EBE9
:1050F000C25038BF70471CF07F0F4FEA400C18BFFA
:10510000BCF17F4F38BF7047C3F12003994008BFFF
:1051100020F00100BCF17F4F38BF7047A0F1C040C4
:1051200000F085BA4FEA3C00000A40EBC25028BFAD
:105130001CF0FF0F4FEA400CE6D018BFBCF17F4FC8
:1051400038BF7047EAE79CEA026F05D010EA5C0FAF
:1051500008BF00F00040704710B500F022FA00BF11
:1051600064FBBE3E401058BFC0F14040491058BFDC
:10517000C1F140418142EFF3008070474FF47F0C52
:105180001CEAD0121EBF1CEAD11392EA0C0F93EA5C
:105190000C0F00F0858090EA010F48BF42F4807246
:1051A00040F4000C41F400002CF07F4120F07F40DF
:1051B00000B58142A2EB03020FF2081CACEB504E8B
:1051C000C0F100009EF800E04FEA4E0E00FB0EFC1E
:1051D00038BF49004FEA2C1C02F5FA020CFB0EF313
:1051E0004FEACE1E4FEA112C4FEAC1210EEB635E4F
:1051F00042EB22420EFB0CFC4FEA1C5300FB031156
:105200004FEA112C4FEA01310EFB0CFC4FEADC4C4B
:1052100000FB0C11C14228BF09184CEB03335DF8A9
:1052200004EB10EB410143EBC250B2F57C0F38BFE9
:10523000704729D512F0F00F1CBF00F1C04000F0FC
:1052400000407047008182838485868788898B8CA3
:105250008D8E8F919293959697999A9C9D9FA0A2DF
:10526000A3A5A7A8AAACAEB0B2B3B5B7B9BCBEC02F
:10527000C2C5C7C9CCCED1D4D7D9DCDFE2E6E9ECD0
:10528000F0F3F7FAFE0000004FEA400C0CF1807CCE
:10529000BCF17E4F28BF7047B0F1C04000F0C7B9E5
:1052A00090EA010F0CEAD11348BF42F480726245C4
:1052B00038BF634507D213F47F0F16D080EA010090
:1052C00000F00040704710B500F06BF9097EFC3E1D
:1052D00000F005B880EA010000F00040704780EA65
:1052E000010000F0004000F0A2B912F47F0F04BFEB
:1052F0000248704780EA010000F099B90000C07FC1
:1053000050EA010C00F113801CF5000F58BFBCF5EA
:10531000000F01D48842704707D710F5000F58BF1F
:1053200011F5000F15D488427047894270471CF56B
:10533000000F04D5BCF5000FF7D5814270474FF040
:10534000807C1CEB400F38BF1CEB410F01D2814227
:10535000704710B500F025F9922449004FF0005035
:105360004FF08051FFF7FEBE41000B0ED3F19E02BD
:1053700008D950F400034FEA032323FA02F048BF90
:105380004042704710B500F00CF900BF49922480EC
:10539000002070476FF0004282EA20007047000052
:1053A000C10DD1F19E0206DB4FEA002343F000431A
:1053B00023FA02F07047004207D54FEA4001B1F1ED
:1053C000FE4F02D24FF00000704710B500F0E9F830
:1053D00049922480002070476FEA20007047000047
:1053E00010F0004148BF4042B0FA80F310FA03F2D7
:1053F000C3F19D030BD051EAC35101EB12205306B8
:1054000038BF704700F1010008BF20F0010070476D
:10541000B0FA80F310FA03F2C3F19D030AD0D90564
:1054200001EB1220530638BF704700F1010008BF9E
:1054300020F001007047000050EA010C00F11380D9
:105440001CF5000F58BFBCF5000F01D4884270470F
:1054500007D710F5000F58BF11F5000F15D488427B
:105460007047894270471CF5000F04D5BCF5000F4A
:10547000F7D5814270474FF0807C1CEB400F38BF5E
:105480001CEB410F01D28142704710B500F089F842
:10549000922449004FF000504FF08051FFF762BE58
:1054A0004FF47F0C1CEAD0121EBF1CEAD11392EA03
:1054B0000C0F93EA0C0F00F0478090EA010F48BFF1
:1054C00042F480724FF0004C4CEA00204CEA01217B
:1054D00002EB0302A0FB0113A2F50002002918BF92
:1054E00043F001035B0028BF4FEA330342EB224243
:1054F0005FEA132C4CEBC2502EBFBCEB436FB2F5EE
:105500007C0F70474FEA036CBCF1004F08BF20F0DE
:105510000100B2F57C0F38BF70470BD582F0FF0257
:1055200012F5803FC8BF704700F1C040D8BF00F0FF
:105530000040704700F5000C5FEA4C0C48BF704714
:10554000B0F1C04000F073B890EA010F0CEAD1133B
:1055500048BF42F48072624538BF634504D280EA96
:10556000010000F00040704710B500F01AF800BFCD
:105570008900013E00F007B800F009B85FEA410C6D
:105580005FEA1C6C08D080EA010000F050B85FEAC6
:10559000400C5FEA1C6CF6D14FF00040A0F5800093
:1055A00070470EF1020E2EF0030E5EF8044B2442FB
:1055B00004D44FEA4102B2F17F4F11D84FEA4003C1
:1055C000B3F17F4F0CD80ED14FEAD07CB2F17F4FB0
:1055D0000CEB4C0C0CF1020C08BF4CEBD17C04E042
:1055E0004FF0080C01E04FEAD17C0CEB4C0324FA9D
:1055F00003F404F00704B4F1040C06D20EEB840C9F
:10560000BDE810404CF0010C6047DFE80CF00708E3
:1056100002024FF00040A0F5800010BD0846420095
:1056200018BFD2F1807288BF00F0004010BDFF218A
:1056300041EAD050C005704751EA000C00F11380D8
:105640001CF5000F58BFBCF5000F01D48142704714
:1056500007D711F5000F58BF10F5000F15D4814280
:105660007047894270471CF5000F04D5BCF5000F48
:10567000F7D5884270474FF0807C1CEB410F38BF54
:105680001CEB400F01D28842704780EA010081EA9A
:10569000000180EA0100FFF7F8BE000090EA010F68
:1056A00048BF81F000413FF502AD421A04D882F0B4
:1056B0000042A0EB020011444FEAD0524FF07F4C61
:1056C0001CEA410FA2EBD15318BF9CEA026F4AD0EB
:1056D0004FF0004C4CEA00204CEA012121FA03FC77
:1056E000B0EB0C0C0FD412F0FE0F36D05FEA4C007A
:1056F0001DD5001240EBC25038BF70471CF03F0F61
:1057000018BF70470BE0A2F101025FEA1C2040EBDA
:10571000C25038BF70471CF07F0F18BF7047C3F1ED
:105720002003994014BF401E20F0010070478008FC
:105730004FEA122308BF7047B0FA80FCA2EB0C02BC
:10574000CCF1280C60FA0CF093EA122F04BF00EBA6
:10575000C25070474FEAC3707047130A5FEADC100B
:1057600008BF7047F6E79CEA026F04D010EA5C0FAE
:1057700008BF0020704710B5FFF713FF40DFF63E6B
:1057800081F0004070470CF00F03092B08BF082080
:1057900000F059800A2B0BD0082B18BF704708BFA8
:1057A0001CF0400F0AD04FF000004FF0000170478E
:1057B0001CF0400F18BF4FF0004070471CF0100F56
:1057C00008D020F0704300F07F4242EAD3014FEA54
:1057D0004370704700F0604021F07F4242EA0002CF
:1057E00001F07F4040EA727070474FF0FF0C4CF4BC
:1057F000E06C1CEA11531CBF9CEA030C9445C2BF29
:10580000DA4201EB02517047002B0DD0BCF1000FC2
:105810000FD0002A01F00041A4BF41F0E04141F067
:105820007F614FF00000704701F000414FF0000031
:10583000704750EA01334FF09B0C18BF4CF0806C5E
:105840007EF480AF70471CF4801F11D01CF4E02F51
:1058500003D06FEACC31490070474FF04050EFF36E
:10586000008222F0704242EA000282F30088704710
:105870004FF000007047000075191A0C6A231B1CBA
:105880001F207274433B4138393A6B6C376F0624E2
:105890006D6E70006800000476005401F7FD000191
:1058A000830000000008000000010018320005001D
:1058B000000020410000D242295C0F3E9A99993E97
:1058C0003333733F295C0F3E00007000000000245A
:1058D000000000020003000000650054FFEF00001C
:1058E000FA80000B12820001030C30C30E8C8CE98D
:1058F00014D5400213710F8E3883F8833000F8837B
:10590000258EF8833000F883FFFFFFFF0FFEA9D636
:10591000240004001A8279A10000003CFFFF00006F
:105920000010000038836FA2003E033040000000EA
:1059300002CAE3093E8000002000000000000000D1
:105940004000000060000000000C0000000C186E19
:10595000000006920A16C0DFFFFF0256FD8CD377C7
:10596000FFE1C496E0C5BEAA00000000FFFF0B2BBC
:1059700000001657000003594000000000001DFA07
:1059800000026C1D000000003FFFDFEB003EB3B6DD
:10599000000D227800002F3C00000000001942B5E5
:1059A000000039A20000B365D90E9FC91DCF4C3449
:1059B00030000000500000003BB67AE800640000B0
:1059C00000C8000000000000100000001000FA9263
:1059D0001000225E000D229F000100000032000036
:1059E000FF46000063D400001000000004D6000051
:1059F00004CC000004CC0000000010720000004045
:105A00000000000000000000000600020005000782
:105A1000000000000064000000000000000000051D
:105A200000050064002000000000000000000000ED
:105A3000000040000000030000000032F898000061
:105A4000FF650000830F0000FF9BFC0000000000CA
:105A50000000000000000000000000000000000046
:105A60000000000000000000000000000000000036
:105A700000000000000010004000000000000006D0
:105A80000000B26A000200000001FB830068000011
:105A900000D9FC007CF1FF830000000000650000DD
:105AA000006403E8006400280000002500000000F6
:105AB00016A000000000100000001000002F0000E1
:105AC000000001F40000100000280000FFFF4581E5
:105AD000FFFFFA7200000000000000000044000513
